{
  "contractName": "Decentragram",
  "abi": [
    {
      "constant": true,
      "inputs": [
        {
          "internalType": "uint256",
          "name": "",
          "type": "uint256"
        }
      ],
      "name": "posts",
      "outputs": [
        {
          "internalType": "uint256",
          "name": "ID",
          "type": "uint256"
        },
        {
          "internalType": "string",
          "name": "ipfs",
          "type": "string"
        },
        {
          "internalType": "uint256",
          "name": "votes",
          "type": "uint256"
        }
      ],
      "payable": false,
      "stateMutability": "view",
      "type": "function"
    },
    {
      "constant": true,
      "inputs": [],
      "name": "totalImages",
      "outputs": [
        {
          "internalType": "uint256",
          "name": "",
          "type": "uint256"
        }
      ],
      "payable": false,
      "stateMutability": "view",
      "type": "function"
    },
    {
      "constant": false,
      "inputs": [
        {
          "internalType": "string",
          "name": "ipfslink",
          "type": "string"
        }
      ],
      "name": "putPost",
      "outputs": [],
      "payable": false,
      "stateMutability": "nonpayable",
      "type": "function"
    },
    {
      "constant": false,
      "inputs": [
        {
          "internalType": "uint256",
          "name": "_id",
          "type": "uint256"
        }
      ],
      "name": "likePost",
      "outputs": [],
      "payable": false,
      "stateMutability": "nonpayable",
      "type": "function"
    }
  ],
  "bytecode": "0x60806040526000805534801561001457600080fd5b50610480806100246000396000f3fe608060405234801561001057600080fd5b506004361061004c5760003560e01c80630b1e7f8314610051578063725009d314610106578063c96ece8a14610134578063fade8834146101ef575b600080fd5b61007d6004803603602081101561006757600080fd5b810190808035906020019092919050505061020d565b6040518084815260200180602001838152602001828103825284818151815260200191508051906020019080838360005b838110156100c95780820151818401526020810190506100ae565b50505050905090810190601f1680156100f65780820380516001836020036101000a031916815260200191505b5094505050505060405180910390f35b6101326004803603602081101561011c57600080fd5b81019080803590602001909291905050506102dc565b005b6101ed6004803603602081101561014a57600080fd5b810190808035906020019064010000000081111561016757600080fd5b82018360208201111561017957600080fd5b8035906020019184600183028401116401000000008311171561019b57600080fd5b91908080601f016020809104026020016040519081016040528093929190818152602001838380828437600081840152601f19601f82011690508083019250505050505050919291929050505061030d565b005b6101f76103a0565b6040518082815260200191505060405180910390f35b6001818154811061021a57fe5b9060005260206000209060030201600091509050806000015490806001018054600181600116156101000203166002900480601f0160208091040260200160405190810160405280929190818152602001828054600181600116156101000203166002900480156102cc5780601f106102a1576101008083540402835291602001916102cc565b820191906000526020600020905b8154815290600101906020018083116102af57829003601f168201915b5050505050908060020154905083565b600181815481106102e957fe5b90600052602060002090600302016002016000815480929190600101919050555050565b60016040518060600160405280600054815260200183815260200160008152509080600181540180825580915050906001820390600052602060002090600302016000909192909190915060008201518160000155602082015181600101908051906020019061037e9291906103a6565b5060408201518160020155505050600080815480929190600101919050555050565b60005481565b828054600181600116156101000203166002900490600052602060002090601f016020900481019282601f106103e757805160ff1916838001178555610415565b82800160010185558215610415579182015b828111156104145782518255916020019190600101906103f9565b5b5090506104229190610426565b5090565b61044891905b8082111561044457600081600090555060010161042c565b5090565b9056fea265627a7a72315820e52e06b24c65a41b2106dc802c51f2675a62a5239d354d880f8d5a3f0e4d8c4164736f6c63430005100032",
  "source": "pragma solidity >=0.4.21 <=0.8.14;\r\ncontract Decentragram {\r\n\r\n\r\n            struct image{\r\n                uint ID;\r\n                string ipfs;\r\n                uint votes;\r\n            }\r\n            uint public totalImages=0;\r\n            image[] public posts;\r\n            \r\n            function putPost(string memory ipfslink) public {\r\n                posts.push(image(totalImages,ipfslink,0));\r\n                totalImages++;\r\n            }\r\n            function likePost(uint _id) public {\r\n\r\n                posts[_id].votes++;\r\n\r\n            }\r\n\r\n\r\n}",
  "sourcePath": "C:\\Users\\kusha\\Desktop\\dapp practice\\Decentragram\\contracts\\Decentragram.sol",
  "compiler": {
    "name": "solc",
    "version": "0.5.16+commit.9c3226ce.Emscripten.clang"
  },
  "schemaVersion": "3.4.4",
  "updatedAt": "2022-06-05T05:44:49.045Z",
  "networkType": "ethereum",
  "devdoc": {
    "methods": {}
  },
  "userdoc": {
    "methods": {}
  }
}